:100000000C942A000C946B180C9447180C946917E4
:100010000C9447000C9447000C9447000C94470044
:100020000C9447000C9447000C9447000C94470034
:100030000C9447000C9447000C9447000C94470024
:100040000C9447000C9447000C9447000C94470014
:100050000C94470011241FBECFE5D8E0DEBFCDBF12
:1000600011E0A0E6B0E0EAEDFDE302C005900D92DC
:10007000AA34B107D9F722E0AAE4B1E001C01D9289
:10008000AC3AB207E1F70E94711A0C94EB1E0C9483
:100090000000FC010FB6F8946091A8027091A902CB
:1000A0008091AA029091AB020FBE309721F060833D
:1000B0007183828393830895BC01F89420E030E03B
:1000C00015C0F901EE0FFF1FEB5EFE4F408151811D
:1000D0004BBBFB01E20FF31F908195BB89EF90E0D2
:1000E0000197F1F700C000002F5F3F4F213131052C
:1000F00044F378940895CF92DF92EF92FF920F939A
:100100001F93CF93DF93EC017B0100E010E032C03E
:1001100086B3813091F180E090E00CC09C012F5FAC
:100120003F4FF901E856FD4F4081FC01E856FD4F75
:100130004083C9018F3091058CF3F701EE0FFF1F4B
:10014000EE0FFF1FEE0FFF1FE958FF4FE00FF11FEB
:1001500080818093A702C12CD12C07C088E992E04E
:100160000E945C008FEFC81AD80ACC16DD06B0F3E7
:100170000F5F1F4F083011055CF2DF91CF911F9187
:100180000F91FF90EF90DF90CF900895AF92BF92C4
:10019000CF92DF92EF92FF920F931F93CF93DF9353
:1001A0008C016B0186B3813031F510924B011092B6
:1001B0004A012FC086B38130A9F410924B011092EE
:1001C0004A0127C0F801EA0DFB1D9081FE01EC59A0
:1001D000FF4F8081981304C0BE01C6010E947B00BE
:1001E000219602C0C0E0D0E0C331D10558F38FEFB3
:1001F000E81AF80A02C0E12CF12CF8010190002065
:10020000E9F73197E01BF10B5701EE16FF0690F26C
:10021000C9CFDF91CF911F910F91FF90EF90DF90A9
:10022000CF90BF90AF900895BC0121E030E080E016
:1002300090E01EC0FB01EE0FFF1FEE0FFF1FEE0F41
:10024000FF1FE60FF71FE20FF31FEE0FFF1FEC5A21
:10025000FE4F40815181E8E0F0E0E21BF30B02C069
:10026000440F551FEA95E2F7842B952B2F5F3F4FE4
:1002700029303105FCF20895FC01EE0FFF1FEE0F4F
:10028000FF1FEE0FFF1FE80FF91FE60FF71FEE0F1E
:10029000FF1FEC5AFE4F81E090E091838083089528
:1002A0008F929F92AF92BF92CF92DF92EF92FF9286
:1002B0000F931F93CF93DF938C017B0180915001AB
:1002C0009091510183709927892B09F079C00231EF
:1002D00011050CF017C2623071050CF416C26830BB
:1002E00071050CF015C2F801EE0FFF1FEE0FFF1F96
:1002F000EE0FFF1FE00FF11FE60FF71FEE0FFF1FBE
:10030000EC5AFE4F80819181009709F004C2EB0105
:100310002197F801EE0FFF1FEE0FFF1FEE0FFF1FDB
:10032000E00FF11FEC0FFD1FEE0FFF1FEC5AFE4F09
:10033000208131812115310509F01EC26B018FEF3B
:10034000C81AD80AF801EE0FFF1FEE0FFF1FEE0FBD
:10035000FF1FE00FF11FEC0DFD1DEE0FFF1FEC5A0C
:10036000FE4F80819181009709F0D8C1580121E0AA
:10037000A21AB108F501EE0FFF1FEE0FFF1FEE0FDF
:10038000FF1FEA0DFB1DE60FF71FEE0FFF1FEC5AD4
:10039000FE4F20813181232B09F0EEC1C8010E945C
:1003A0003C01BE01C8010E943C01B601C8010E9487
:1003B0003C01B701C5010E943C0181E090E0DCC135
:1003C000809150019091510183709078992324F489
:1003D00001978C6F9F6F0196EC01019709F07DC02A
:1003E000013111050CF09CC182E0E816F1040CF417
:1003F0009AC129E0E216F1040CF098C1F801EE0F61
:10040000FF1FEE0FFF1FEE0FFF1FE00FF11FEE0D9E
:10041000FF1DEE0FFF1FEC5AFE4F80819181009768
:1004200009F087C1680121E0C21AD108F601EE0F78
:10043000FF1FEE0FFF1FEE0FFF1FEC0DFD1DEE0D5A
:10044000FF1DEE0FFF1FEC5AFE4F20813181211559
:10045000310509F091C1570181E0A81AB108F801EE
:10046000EE0FFF1FEE0FFF1FEE0FFF1FE00FF11F3C
:10047000EA0DFB1DEE0FFF1FEC5AFE4F80819181AC
:10048000009709F059C148012FEF821A920AF4012E
:10049000EE0FFF1FEE0FFF1FEE0FFF1FE80DF91D00
:1004A000EE0DFF1DEE0FFF1FEC5AFE4F2081318134
:1004B000232B09F061C1B701C8010E943C01B701BB
:1004C000C6010E943C01B501C8010E943C01B70170
:1004D000C4010E943C01CE014FC180915001909116
:1004E000510183709078992324F401978C6F9F6F4A
:1004F0000196029709F07CC0013111050CF01EC174
:1005000082E0E816F1040CF41CC128E0E216F104C4
:100510000CF01AC1F801EE0FFF1FEE0FFF1FEE0FD8
:10052000FF1FE00FF11FEE0DFF1DEE0FFF1FEC5A36
:10053000FE4F80819181009709F009C1E701219761
:10054000F801EE0FFF1FEE0FFF1FEE0FFF1FE00F72
:10055000F11FEC0FFD1FEE0FFF1FEC5AFE4F208125
:1005600031812115310509F007C167018FEFC81AE4
:10057000D80AF801EE0FFF1FEE0FFF1FEE0FFF1F4F
:10058000E00FF11FEC0DFD1DEE0FFF1FEC5AFE4FAB
:1005900080819181009709F0DDC058012FEFA21AE8
:1005A000B20AF501EE0FFF1FEE0FFF1FEE0FFF1F48
:1005B000EA0DFB1DEE0DFF1DEE0FFF1FEC5AFE4F67
:1005C00020813181232B09F0D7C0B701C8010E94D7
:1005D0003C01BE01C8010E943C01B601C8010E9455
:1005E0003C01B701C5010E943C0181E090E0C4C01C
:1005F000809150019091510183709078992324F457
:1006000001978C6F9F6F0196039709F0A5C0013188
:1006100011050CF0A4C01E141F040CF0A3C088E048
:10062000E816F1040CF0A1C0F801EE0FFF1FEE0F69
:10063000FF1FEE0FFF1FE00FF11FEE0DFF1DEE0F6E
:10064000FF1FEC5AFE4F80819181009709F090C006
:10065000E8012197FE01EE0FFF1FEE0FFF1FEE0FC7
:10066000FF1FEC0FFD1FEE0DFF1DEE0FFF1FEC5ADD
:10067000FE4F208131812115310509F07DC06701D0
:100680008FEFC81AD80AF801EE0FFF1FEE0FFF1FF9
:10069000EE0FFF1FE00FF11FEC0DFD1DEE0FFF1F12
:1006A000EC5AFE4F80819181009709F064C0580197
:1006B0002FEFA21AB20AF501EE0FFF1FEE0FFF1F78
:1006C000EE0FFF1FEA0DFB1DEE0DFF1DEE0FFF1FCE
:1006D000EC5AFE4F20813181232B09F04DC0B70128
:1006E000C8010E943C01B701CE010E943C01B60145
:1006F000C8010E943C01B701C5010E943C0181E094
:1007000090E03AC080E090E037C080E090E034C0F4
:1007100080E090E031C080E090E02EC0C9012CC0A4
:1007200080E090E029C080E090E026C080E090E08A
:1007300023C080E090E020C0C9011EC080E090E0AE
:100740001BC080E090E018C080E090E015C080E021
:1007500090E012C0C90110C080E090E00DC080E0C0
:1007600090E00AC080E090E007C080E090E004C024
:1007700080E090E001C0C901DF91CF911F910F91FE
:10078000FF90EF90DF90CF90BF90AF909F908F90B1
:100790000895AF92BF92CF92DF92EF92FF920F93A4
:1007A0001F93CF93DF938C017B0180915001909137
:1007B000510180FD5DC0023111050CF0C8C06230EE
:1007C00071050CF4C7C0683071050CF0C6C0F801A3
:1007D000EE0FFF1FEE0FFF1FEE0FFF1FE00FF11FC9
:1007E000E60FF71FEE0FFF1FEC5AFE4F20813181FD
:1007F0002115310509F0B4C0EB012197F801EE0F86
:10080000FF1FEE0FFF1FEE0FFF1FE00FF11FEC0F9A
:10081000FD1FEE0FFF1FEC5AFE4F80819181009764
:1008200009F0A1C06B012FEFC21AD20AF801EE0F36
:10083000FF1FEE0FFF1FEE0FFF1FE00FF11FEC0D6C
:10084000FD1DEE0FFF1FEC5AFE4F20813181232B3F
:1008500009F09BC0C8010E943C01BE01C8010E9472
:100860003C01B601C8010E943C0181E090E08DC0CE
:10087000809150019091510181709078992324F4D6
:1008800001978E6F9F6F0196EC01019709F06DC083
:10089000013111050CF06CC01E141F040CF06BC06C
:1008A00089E0E816F1040CF069C0F801EE0FFF1FB3
:1008B000EE0FFF1FEE0FFF1FE00FF11FEE0DFF1DEC
:1008C000EE0FFF1FEC5AFE4F80819181009709F0D7
:1008D00058C0680121E0C21AD108F601EE0FFF1FCF
:1008E000EE0FFF1FEE0FFF1FEC0DFD1DEE0DFF1DA8
:1008F000EE0FFF1FEC5AFE4F20813181211531058B
:1009000009F043C058018FEFA81AB80AF501EE0F9D
:10091000FF1FEE0FFF1FEE0FFF1FEA0DFB1DEE0D79
:10092000FF1DEE0FFF1FEC5AFE4F80819181892B36
:1009300059F5B701C8010E943C01B701C6010E94E8
:100940003C01B701C5010E943C01CE011EC080E000
:1009500090E01BC080E090E018C080E090E015C0FF
:1009600080E090E012C0C90110C080E090E00DC0AE
:1009700080E090E00AC080E090E007C080E090E076
:1009800004C080E090E001C0C901DF91CF911F91C8
:100990000F91FF90EF90DF90CF90BF90AF900895B0
:1009A000CF92DF92EF92FF920F931F93CF93DF933B
:1009B000823191050CF074C0161617060CF073C046
:1009C000683071050CF072C0FC01EE0FFF1FEE0FD6
:1009D000FF1FEE0FFF1FE80FF91FE60FF71FEE0FC7
:1009E000FF1FEC5AFE4F208131812115310509F09E
:1009F00060C06B014FEFC41AD40AFC01EE0FFF1F59
:100A0000EE0FFF1FEE0FFF1FE80FF91FEC0DFD1D8E
:100A1000EE0FFF1FEC5AFE4F4081518141155105E9
:100A200009F04BC07C0121E0E21AF108F701EE0F5A
:100A3000FF1FEE0FFF1FEE0FFF1FEE0DFF1DE60F56
:100A4000F71FEE0FFF1FEC5AFE4F20813181211559
:100A5000310591F5F701EE0FFF1FEE0FFF1FEE0FAF
:100A6000FF1FEE0DFF1DEC0DFD1DEE0FFF1FEC5ADD
:100A7000FE4F40815181452B01F58B01EC010E9415
:100A80003C01B601CE010E943C01B801C7010E94A1
:100A90003C01B601C7010E943C0121E030E00DC0DD
:100AA00020E030E00AC020E030E007C020E030E085
:100AB00004C020E030E001C09A01C901DF91CF916C
:100AC0001F910F91FF90EF90DF90CF9008958F923C
:100AD0009F92AF92BF92CF92DF92EF92FF920F93CD
:100AE0001F93CF93DF938C017B01809150019091F4
:100AF000510183709927892B09F079C001311105C3
:100B00000CF017C2623071050CF416C26930710521
:100B10000CF015C2F801EE0FFF1FEE0FFF1FEE0FD6
:100B2000FF1FE00FF11FE60FF71FEE0FFF1FEC5A3C
:100B3000FE4F80819181009709F004C2E80121965F
:100B40006B0121E0C21AD108FE01EE0FFF1FEE0F6C
:100B5000FF1FEE0FFF1FEC0FFD1FEC0DFD1DEE0F35
:100B6000FF1FEC5AFE4F208131812115310509F01C
:100B70001AC2580181E0A81AB108F501EE0FFF1F53
:100B8000EE0FFF1FEE0FFF1FEA0DFB1DE60FF71F15
:100B9000EE0FFF1FEC5AFE4F80819181009709F004
:100BA000D4C1FE01EE0FFF1FEE0FFF1FEE0FFF1F60
:100BB000EC0FFD1FE60FF71FEE0FFF1FEC5AFE4F65
:100BC00020813181232B09F0EEC1C8010E943C0134
:100BD000B701CE010E943C01B601CE010E943C014A
:100BE000B701C5010E943C0181E090E0DCC1809129
:100BF00050019091510183709078992324F40197CA
:100C00008C6F9F6F0196EC01019709F07DC0013157
:100C100011050CF09CC122E0E216F1040CF49AC11B
:100C200088E0E816F1040CF098C1F801EE0FFF1F00
:100C3000EE0FFF1FEE0FFF1FE00FF11FEE0DFF1D68
:100C4000EE0FFF1FEC5AFE4F80819181009709F053
:100C500087C167012FEFC21AD20AF801EE0FFF1FFA
:100C6000EE0FFF1FEE0FFF1FE00FF11FEC0DFD1D3C
:100C7000EE0FFF1FEC5AFE4F208131812115310507
:100C800009F091C1570181E0A81AB108F801EE0FEF
:100C9000FF1FEE0FFF1FEE0FFF1FE00FF11FEA0D0A
:100CA000FB1DEE0FFF1FEC5AFE4F808191810097D4
:100CB00009F059C148012FEF821A920AF401EE0F90
:100CC000FF1FEE0FFF1FEE0FFF1FE80DF91DEC0DCC
:100CD000FD1DEE0FFF1FEC5AFE4F20813181232BAB
:100CE00009F061C1B701C8010E943C01B601C80109
:100CF0000E943C01B501C8010E943C01B601C4013B
:100D00000E943C01CE014FC1809150019091510150
:100D100083709078992324F401978C6F9F6F0196CC
:100D2000029709F07BC0023111050CF01EC11E14A0
:100D30001F040CF01DC188E0E816F1040CF01BC183
:100D4000F801EE0FFF1FEE0FFF1FEE0FFF1FE00F6A
:100D5000F11FEE0DFF1DEE0FFF1FEC5AFE4F8081BD
:100D60009181009709F00AC1E801219767012FEFEF
:100D7000C21AD20AFE01EE0FFF1FEE0FFF1FEE0F89
:100D8000FF1FEC0FFD1FEC0DFD1DEE0FFF1FEC5ABA
:100D9000FE4F208131812115310509F004C1580130
:100DA0008FEFA81AB80AF501EE0FFF1FEE0FFF1F15
:100DB000EE0FFF1FEA0DFB1DEE0DFF1DEE0FFF1FD7
:100DC000EC5AFE4F80819181009709F0DAC0FE0154
:100DD000EE0FFF1FEE0FFF1FEE0FFF1FEC0FFD1FAB
:100DE000EE0DFF1DEE0FFF1FEC5AFE4F20813181EB
:100DF000232B09F0D8C0B701C8010E943C01B601FD
:100E0000CE010E943C01B701C5010E943C01B7011F
:100E1000CE010E943C0181E090E0C5C0809150016C
:100E20009091510183709078992324F401978C6FED
:100E30009F6F0196039709F0A6C0023111050CF0CF
:100E4000A5C022E0E216F1040CF4A3C088E0E81685
:100E5000F1040CF0A1C0F801EE0FFF1FEE0FFF1F11
:100E6000EE0FFF1FE00FF11FEE0DFF1DEE0FFF1F36
:100E7000EC5AFE4F80819181009709F090C0E70104
:100E80002197F801EE0FFF1FEE0FFF1FEE0FFF1F60
:100E9000E00FF11FEC0FFD1FEE0FFF1FEC5AFE4F8E
:100EA000208131812115310509F07DC067018FEF67
:100EB000C81AD80AF801EE0FFF1FEE0FFF1FEE0F42
:100EC000FF1FE00FF11FEC0DFD1DEE0FFF1FEC5A91
:100ED000FE4F80819181009709F064C0580121E0A4
:100EE000A21AB108F501EE0FFF1FEE0FFF1FEE0F64
:100EF000FF1FEA0DFB1DEC0FFD1FEE0FFF1FEC5A4D
:100F0000FE4F20813181232B09F04DC0B701C8016C
:100F10000E943C01BE01C8010E943C01B601C8010B
:100F20000E943C01BE01C5010E943C0181E090E0AD
:100F30003AC080E090E037C080E090E034C080E0CC
:100F400090E031C080E090E02EC0C9012CC080E06C
:100F500090E029C080E090E026C080E090E023C0CF
:100F600080E090E020C0C9011EC080E090E01BC07E
:100F700080E090E018C080E090E015C080E090E054
:100F800012C0C90110C080E090E00DC080E090E088
:100F90000AC080E090E007C080E090E004C080E0FC
:100FA00090E001C0C901DF91CF911F910F91FF9097
:100FB000EF90DF90CF90BF90AF909F908F9008956B
:100FC0008F929F92AF92BF92CF92DF92EF92FF9259
:100FD0000F931F93CF93DF938C017B01809150017E
:100FE0009091510180FD79C0023111050CF000C1D2
:100FF000623071050CF4FFC0683071050CF0FEC062
:10100000F801EE0FFF1FEE0FFF1FEE0FFF1FE00FA7
:10101000F11FE60FF71FEE0FFF1FEC5AFE4F808106
:101020009181009709F0EDC0EB012197F801EE0FD7
:10103000FF1FEE0FFF1FEE0FFF1FE00FF11FEC0F62
:10104000FD1FEE0FFF1FEC5AFE4F2081318121154D
:10105000310509F0EBC0680181E0C81AD1085B01D5
:101060008FEFA81AB80AF601EE0FFF1FEE0FFF1F51
:10107000EE0FFF1FEC0DFD1DEA0DFB1DEE0FFF1F18
:10108000EC5AFE4F80819181009709F0BDC0F601B6
:10109000EE0FFF1FEE0FFF1FEE0FFF1FEC0DFD1DEC
:1010A000E60FF71FEE0FFF1FEC5AFE4F2081318134
:1010B000232B09F0BBC0C8010E943C01BE01C8013E
:1010C0000E943C01B701C6010E943C01B501C60166
:1010D0000E943C0181E090E0A9C080915001909174
:1010E000510181709078992324F401978E6F9F6F3E
:1010F0000196EC01019709F089C0013111050CF04E
:1011000088C01E141F040CF087C028E0E216F1040A
:101110000CF085C0F801EE0FFF1FEE0FFF1FEE0F62
:10112000FF1FE00FF11FEE0DFF1DEE0FFF1FEC5A2A
:10113000FE4F80819181009709F074C067012FEF05
:10114000C21AD20AF801EE0FFF1FEE0FFF1FEE0FBB
:10115000FF1FE00FF11FEC0DFD1DEE0FFF1FEC5AFE
:10116000FE4F208131812115310509F05FC0580102
:1011700081E0A81AB108F501EE0FFF1FEE0FFF1F67
:10118000EE0FFF1FEA0DFB1DEE0DFF1DEE0FFF1F03
:10119000EC5AFE4F80819181009709F046C04801CA
:1011A0002FEF821A920AF401EE0FFF1FEE0FFF1FBE
:1011B000EE0FFF1FE80DF91DEC0DFD1DEE0FFF1FDB
:1011C000EC5AFE4F20813181232B81F5B701C801F4
:1011D0000E943C01B601C8010E943C01B601C40155
:1011E0000E943C01B701C5010E943C01CE011EC016
:1011F00080E090E01BC080E090E018C080E090E0CC
:1012000015C080E090E012C0C90110C080E090E0FD
:101210000DC080E090E00AC080E090E007C080E070
:1012200090E004C080E090E001C0C901DF91CF915F
:101230001F910F91FF90EF90DF90CF90BF90AF90F4
:101240009F908F9008958F929F92AF92BF92CF926E
:10125000DF92EF92FF920F931F93CF93DF938C0156
:101260007B01809150019091510180FD79C0023144
:1012700011050CF000C1623071050CF4FFC068303C
:1012800071050CF0FEC0F801EE0FFF1FEE0FFF1FFF
:10129000EE0FFF1FE00FF11FE60FF71FEE0FFF1F0E
:1012A000EC5AFE4F80819181009709F0EDC0EB016F
:1012B0002196F801EE0FFF1FEE0FFF1FEE0FFF1F2D
:1012C000E00FF11FEC0FFD1FEE0FFF1FEC5AFE4F5A
:1012D000208131812115310509F0EBC0680181E0E1
:1012E000C81AD108F601EE0FFF1FEE0FFF1FEE0F19
:1012F000FF1FEC0DFD1DE60FF71FEE0FFF1FEC5A51
:10130000FE4F80819181009709F0C1C05B0121E00F
:10131000A21AB108F601EE0FFF1FEE0FFF1FEE0F2E
:10132000FF1FEC0DFD1DEA0DFB1DEE0FFF1FEC5A1C
:10133000FE4F20813181232B09F0BBC0C8010E94E0
:101340003C01BE01C8010E943C01B701C6010E94D8
:101350003C01B501C6010E943C0181E090E0A9C0BA
:10136000809150019091510181709078992324F4DB
:1013700001978E6F9F6F0196EC01019709F089C06C
:10138000013111050CF088C01E141F040CF087C039
:1013900088E0E816F1040CF085C0F801EE0FFF1F9D
:1013A000EE0FFF1FEE0FFF1FE00FF11FEE0DFF1DF1
:1013B000EE0FFF1FEC5AFE4F80819181009709F0DC
:1013C00074C067012FEFC21AD20AF801EE0FFF1F97
:1013D000EE0FFF1FEE0FFF1FE00FF11FEC0DFD1DC5
:1013E000EE0FFF1FEC5AFE4F208131812115310590
:1013F00009F05FC0580181E0A81AB108F501EE0FAD
:10140000FF1FEE0FFF1FEE0FFF1FEA0DFB1DEC0D80
:10141000FD1DEE0FFF1FEC5AFE4F8081918100975A
:1014200009F046C048012FEF821A920AF401EE0F2C
:10143000FF1FEE0FFF1FEE0FFF1FE80DF91DEE0D52
:10144000FF1DEE0FFF1FEC5AFE4F20813181232B31
:1014500081F5B701C8010E943C01B601C8010E9494
:101460003C01B601C5010E943C01B701C4010E94C4
:101470003C01CE011EC080E090E01BC080E090E007
:1014800018C080E090E015C080E090E012C0C90173
:1014900010C080E090E00DC080E090E00AC080E0E5
:1014A00090E007C080E090E004C080E090E001C0E0
:1014B000C901DF91CF911F910F91FF90EF90DF90C5
:1014C000CF90BF90AF909F908F900895209113017F
:1014D00030911401609111017091120180915201BB
:1014E000909153018330910509F4CBC23CF48130D3
:1014F000910571F0029709F463C0C2C2853091056D
:1015000009F451C20CF4B0C0069709F4DFC1B8C2A7
:1015100040915001509151014130510549F11CF465
:10152000452B49F0ADC24230510509F4ADC24330FC
:10153000510591F1A5C22131310509F4A8C22F5FEF
:101540003F4FF901EE0FFF1FEE0FFF1FEE0FFF1FC2
:10155000E20FF31FE60FF71FEE0FFF1FEC5AFE4FCF
:10156000408151814115510509F4C1C2AC01BFC28E
:101570006F5F7F4FF901EE0FFF1FEE0FFF1FEE0FA2
:10158000FF1FE20FF31FE60FF71FEE0FFF1FEC5ACE
:10159000FE4F40815181ABC261507109F901EE0FDC
:1015A000FF1FEE0FFF1FEE0FFF1FE20FF31FE60FEF
:1015B000F71FEE0FFF1FEC5AFE4F4081518197C27B
:1015C0008091500190915101892BF1F42131310525
:1015D00009F45FC22F5F3F4FF901EE0FFF1FEE0FBF
:1015E000FF1FEE0FFF1FE20FF31FE60FF71FEE0FB7
:1015F000FF1FEC5AFE4F408151814115510509F4FE
:1016000076C241E050E073C2F901EE0FFF1FEE0F0A
:10161000FF1FEE0FFF1FE20FF31FCB010196E80F34
:10162000F91FEE0FFF1FEC5AFE4F80819181892B2D
:1016300009F032C261507109F901EE0FFF1FEE0F80
:10164000FF1FEE0FFF1FE20FF31FE60FF71FEE0F56
:10165000FF1FEC5AFE4F408151814115510509F49D
:1016600046C241E050E043C24091500150915101C7
:101670004130510509F454C01CF4452B51F000C20F
:101680004230510509F490C04330510509F4D3C0EC
:10169000F7C1F901EE0FFF1FEE0FFF1FEE0FFF1F47
:1016A000E20FF31FCB010197E80FF91FEE0FFF1FA9
:1016B000EC5AFE4F80819181892B09F0F0C16F5F58
:1016C0007F4FF901EE0FFF1FEE0FFF1FEE0FFF1F01
:1016D000E20FF31FE60FF71FEE0FFF1FEC5AFE4F4E
:1016E00080819181892B09F0DDC12F5F3F4FF90186
:1016F000EE0FFF1FEE0FFF1FEE0FFF1F2E0F3F1FFE
:10170000620F731FFB01EE0FFF1FEC5AFE4F40816B
:1017100051814115510509F4EAC141E050E0E7C1AA
:10172000C9010196FC01EE0FFF1FEE0FFF1FEE0F28
:10173000FF1FE80FF91FE60FF71FEE0FFF1FEC5A10
:10174000FE4F80819181892B09F0D1C1215031094F
:10175000F901EE0FFF1FEE0FFF1FEE0FFF1FE20F4D
:10176000F31FE60FF71FEE0FFF1FEC5AFE4F8081AD
:101770009181892B09F0BBC16F5F7F4FC901880F31
:10178000991F880F991F880F991F280F391F260F3F
:10179000371F220F331FF901EC5AFE4F80819181D0
:1017A000009709F482C1A3C1F901EE0FFF1FEE0FEC
:1017B000FF1FEE0FFF1FE20FF31FCB010196E80F93
:1017C000F91FEE0FFF1FEC5AFE4F80819181892B8C
:1017D00009F06DC1C901019761507109FC01EE0F5B
:1017E000FF1FEE0FFF1FEE0FFF1FE80FF91FE60FA1
:1017F000F71FEE0FFF1FEC5AFE4F80819181892B5E
:1018000009F058C1F901EE0FFF1FEE0FFF1FEE0F99
:10181000FF1FE20FF31F6E0F7F1FFB01EE0FFF1F75
:10182000EC5AFE4F408151814115510509F45FC1C9
:1018300041E050E05CC12131310509F43EC1A9010C
:101840004F5F5F4FFA01EE0FFF1FEE0FFF1FEE0F0E
:10185000FF1FE40FF51FCB010197E80FF91FEE0FF3
:10186000FF1FEC5AFE4F80819181892B09F028C11E
:10187000FA01EE0FFF1FEE0FFF1FEE0FFF1FE40F29
:10188000F51FE60FF71FEE0FFF1FEC5AFE4F80818A
:101890009181892B09F017C121503109F901EE0F0F
:1018A000FF1FEE0FFF1FEE0FFF1FE20FF31FE60FEC
:1018B000F71FEE0FFF1FEC5AFE4F4081518141157B
:1018C000510509F414C141E050E011C1809150016B
:1018D00090915101892BB1F52031310509F4F6C001
:1018E000C9010196FC01EE0FFF1FEE0FFF1FEE0F67
:1018F000FF1FE80FF91FE60FF71FEE0FFF1FEC5A4F
:10190000FE4F80819181892B09F0E3C0215031097C
:101910006F5F7F4FF901EE0FFF1FEE0FFF1FEE0FFE
:10192000FF1FE20FF31FE60FF71FEE0FFF1FEC5A2A
:10193000FE4F408151814115510509F4D8C041E065
:1019400050E0D5C021503109F901EE0FFF1FEE0F15
:10195000FF1FEE0FFF1FE20FF31FE60FF71FEE0F43
:10196000FF1FEC5AFE4F80819181892B09F0B4C092
:10197000FB013197B901660F771F660F771F660F5E
:10198000771F260F371F2E0F3F1FF901EE0FFF1F86
:10199000EC5AFE4F408151814115510509F4A7C011
:1019A00041E050E0A4C08091500190915101892BF9
:1019B000A9F52031310509F492C06F5F7F4FF9011D
:1019C000EE0FFF1FEE0FFF1FEE0FFF1FE20FF31FC3
:1019D000E60FF71FEE0FFF1FEC5AFE4F808191813B
:1019E000892B09F07FC02F5F3F4FF901EE0FFF1FDA
:1019F000EE0FFF1FEE0FFF1F2E0F3F1F620F731F13
:101A0000FB01EE0FFF1FEC5AFE4F40815181411543
:101A1000510509F46CC041E050E069C0F901EE0FD6
:101A2000FF1FEE0FFF1FEE0FFF1FE20FF31FCB0193
:101A30000197E80FF91FEE0FFF1FEC5AFE4F808150
:101A40009181892B09F051C0215031096F5F7F4F7F
:101A5000C901880F991F880F991F880F991F280F98
:101A6000391F260F371F220F331FF901EC5AFE4F83
:101A70004081518141155105D1F141E050E037C01D
:101A8000089541E050E033C040E050E030C0AC0188
:101A90002EC041E050E02BC041E050E028C041E0C2
:101AA00050E025C041E050E022C0AC0120C041E040
:101AB00050E01DC041E050E01AC041E050E017C0C6
:101AC00041E050E014C041E050E011C041E050E07E
:101AD0000EC041E050E00BC041E050E008C041E0E2
:101AE00050E005C041E050E002C041E050E0842FEA
:101AF000952F089580911301909114014091110147
:101B0000509112012091520130915301233031053F
:101B100009F493C144F42130310581F022303105BC
:101B200009F41CC1E5C32530310509F4CEC20CF41B
:101B3000B8C12630310509F450C3DAC360915001B1
:101B4000709151016130710509F455C01CF4672B87
:101B500051F0CEC36230710509F483C06330710562
:101B600009F4C9C0C5C38131910509F412C40196B5
:101B7000FC01EE0FFF1FEE0FFF1FEE0FFF1FE80F20
:101B8000F91FBA016F5F7F4FE60FF71FEE0FFF1FC0
:101B9000EC5AFE4F60817181672B09F0FAC3FC019A
:101BA000EE0FFF1FEE0FFF1FEE0FFF1FE80FF91FD5
:101BB000BA0161507109E60FF71FEE0FFF1FEC5AD3
:101BC000FE4F60817181672B09F0E3C3FC01EE0FCA
:101BD000FF1FEE0FFF1FEE0FFF1FE80FF91FE40FAF
:101BE000F51FEE0FFF1FEC5AFE4F80819181009789
:101BF00009F47FC3CEC38031910509F47CC39C01F5
:101C00002F5F3F4FF901EE0FFF1FEE0FFF1FEE0F8B
:101C1000FF1FE20FF31F9A0121503109E20FF31F5A
:101C2000EE0FFF1FEC5AFE4F20813181232B09F06C
:101C300064C30296FC01EE0FFF1FEE0FFF1FEE0FB5
:101C4000FF1FE80FF91FE40FF51FEE0FFF1FEC5AFF
:101C5000FE4F208131812115310509F49AC39B0182
:101C600098C38031910509F494C3DC011196FD01FC
:101C7000EE0FFF1FEE0FFF1FEE0FFF1FEA0FFB1F00
:101C8000BA016F5F7F4FE60FF71FEE0FFF1FEC5A91
:101C9000FE4F60817181672B09F07BC3FD01EE0F60
:101CA000FF1FEE0FFF1FEE0FFF1FEA0FFB1FBA0112
:101CB00061507109E60FF71FEE0FFF1FEC5AFE4F40
:101CC00060817181672B09F064C30296FC01EE0FFD
:101CD000FF1FEE0FFF1FEE0FFF1FE80FF91FE40FAE
:101CE000F51FEE0FFF1FEC5AFE4F80819181009788
:101CF00009F405C34EC38031910509F44AC3BC0100
:101D00006E5F7F4FFB01EE0FFF1FEE0FFF1FEE0F09
:101D1000FF1FE60FF71FE40FF51FEE0FFF1FEC5A32
:101D2000FE4F60817181672B09F033C301964F5FCD
:101D30005F4FFC01EE0FFF1FEE0FFF1FEE0FFF1FA7
:101D4000E80FF91FE40FF51FEE0FFF1FEC5AFE4FCF
:101D500080819181009709F4D4C21BC32091500166
:101D600030915101232B09F04BC08131910509F4C9
:101D7000CAC20196FC01EE0FFF1FEE0FFF1FEE0F10
:101D8000FF1FE80FF91F9A012F5F3F4FE20FF31F6C
:101D9000EE0FFF1FEC5AFE4F20813181232B09F0FB
:101DA000B5C2FC01EE0FFF1FEE0FFF1FEE0FFF1F6E
:101DB000E80FF91F9A0121503109E20FF31FEE0FCE
:101DC000FF1FEC5AFE4F20813181232B09F0A1C265
:101DD000FC01EE0FFF1FEE0FFF1FEE0FFF1FE80FBE
:101DE000F91FE40FF51FEE0FFF1FEC5AFE4F208185
:101DF00031812115310509F4CCC221E030E0C9C29E
:101E00008031910509F488C20296FC01EE0FFF1F94
:101E1000EE0FFF1FEE0FFF1FE80FF91FE40FF51F76
:101E2000EE0FFF1FEC5AFE4F208131812115310545
:101E300009F4AFC221E030E0ACC28131910509F470
:101E40006EC20196FC01EE0FFF1FEE0FFF1FEE0F9B
:101E5000FF1FE80FF91FE40FF51FEE0FFF1FEC5AED
:101E6000FE4F20813181232B09F05CC2FA013196AB
:101E7000AC01440F551F440F551F440F551F840FCD
:101E8000951F8E0F9F1FFC01EE0FFF1FEC5AFE4F98
:101E9000208131812115310509F47BC221E030E038
:101EA00078C220915001309151012130310509F45F
:101EB00041C01CF4232B51F01BC22230310509F420
:101EC00084C02330310509F4B5C012C280319105B8
:101ED00009F42BC20296FC01EE0FFF1FEE0FFF1F4D
:101EE000EE0FFF1FE80FF91F9A0121503109E20F91
:101EF000F31FEE0FFF1FEC5AFE4F20813181232B81
:101F000009F016C2FC01EE0FFF1FEE0FFF1FEE0FD0
:101F1000FF1FE80FF91FE40FF51FEE0FFF1FEC5A2C
:101F2000FE4F208131812115310509F432C221E0B3
:101F300030E02FC28031910509F42BC2BC016E5FE5
:101F40007F4FFB01EE0FFF1FEE0FFF1FEE0FFF1F76
:101F5000E60FF71FBA016F5F7F4FE60FF71FEE0F17
:101F6000FF1FEC5AFE4F60817181672B09F011C28F
:101F70000196FC01EE0FFF1FEE0FFF1FEE0FFF1F7C
:101F8000E80FF91FBA0161507109E60FF71FEE0F54
:101F9000FF1FEC5AFE4F60817181672B09F0F9C178
:101FA000FC01EE0FFF1FEE0FFF1FEE0FFF1FE80FEC
:101FB000F91FE40FF51FEE0FFF1FEC5AFE4F808153
:101FC0009181009709F4B7C1E4C18031910509F40A
:101FD000B4C19C012E5F3F4FF901EE0FFF1FEE0FC2
:101FE000FF1FEE0FFF1FE20FF31FE40FF51FEE0FB1
:101FF000FF1FEC5AFE4F20813181232B09F0A0C135
:102000004F5F5F4FFC01EE0FFF1FEE0FFF1FEE0F44
:10201000FF1FE80FF91FE40FF51FEE0FFF1FEC5A2B
:10202000FE4F208131812115310509F4B2C121E033
:1020300030E0AFC18131910509F485C10196FC0101
:10204000EE0FFF1FEE0FFF1FEE0FFF1FE80FF91F30
:102050009A012F5F3F4FE20FF31FEE0FFF1FEC5A65
:10206000FE4F20813181232B09F070C1FC01EE0F5E
:10207000FF1FEE0FFF1FEE0FFF1FE80FF91F9A0162
:1020800021503109E20FF31FEE0FFF1FEC5AFE4FF4
:1020900020813181232B09F05CC1FC01EE0FFF1F71
:1020A000EE0FFF1FEE0FFF1FE80FF91FE40FF51FE4
:1020B000EE0FFF1FEC5AFE4F2081318121153105B3
:1020C00009F467C121E030E064C1209150013091F2
:1020D0005101232B09F04BC08131910509F43CC11A
:1020E000FC01EE0FFF1FEE0FFF1FEE0FFF1FE80FAB
:1020F000F91F9A012F5F3F4FE20FF31FEE0FFF1FF3
:10210000EC5AFE4F20813181232B09F028C1019622
:10211000FC01EE0FFF1FEE0FFF1FEE0FFF1FE80F7A
:10212000F91F9A0121503109E20FF31FEE0FFF1F33
:10213000EC5AFE4F20813181232B09F013C1FC01A1
:10214000EE0FFF1FEE0FFF1FEE0FFF1FE80FF91F2F
:10215000E40FF51FEE0FFF1FEC5AFE4F2081318177
:102160002115310509F415C121E030E012C180319B
:10217000910509F4FAC09C012F5F3F4FF901EE0F62
:10218000FF1FEE0FFF1FEE0FFF1FE20FF31FE40F05
:10219000F51FEE0FFF1FEC5AFE4F20813181232BDC
:1021A00009F0E6C002964F5F5F4FFC01EE0FFF1F84
:1021B000EE0FFF1FEE0FFF1FE80FF91FE40FF51FD3
:1021C000EE0FFF1FEC5AFE4F2081318121153105A2
:1021D00009F4DFC021E030E0DCC0209150013091F3
:1021E0005101232B09F04DC08131910509F4C3C081
:1021F000BC016F5F7F4FFB01EE0FFF1FEE0FFF1F54
:10220000EE0FFF1FE60FF71F9A012F5F3F4FE20F00
:10221000F31FEE0FFF1FEC5AFE4F20813181232B5D
:1022200009F0ACC0FC01EE0FFF1FEE0FFF1FEE0F19
:10223000FF1FE80FF91F9A0121503109E20FF31F28
:10224000EE0FFF1FEC5AFE4F80819181892B09F020
:1022500098C0FB01EE0FFF1FEE0FFF1FEE0FFF1FD9
:10226000E60FF71FE40FF51FEE0FFF1FEC5AFE4FAE
:10227000208131812115310509F48BC021E030E046
:1022800088C08031910509F47FC0FC0131969F011F
:10229000220F331F220F331F220F331FE20FF31FB2
:1022A0009A012F5F3F4FE20FF31FEE0FFF1FEC5A13
:1022B000FE4F20813181232B09F069C002969C01D9
:1022C000220F331F220F331F220F331F820F931F42
:1022D000840F951F880F991FFC01EC5AFE4F208137
:1022E00031812115310509F454C021E030E051C09D
:1022F00008959C014EC09B014CC09B014AC09C01AB
:1023000048C09C0146C021E030E043C021E030E0FD
:1023100040C021E030E03DC021E030E03AC021E0A3
:1023200030E037C021E030E034C021E030E031C09F
:1023300021E030E02EC09C012CC021E030E029C01B
:1023400021E030E026C021E030E023C021E030E091
:1023500020C021E030E01DC021E030E01AC021E0C3
:1023600030E017C021E030E014C021E030E011C0BF
:1023700021E030E00EC021E030E00BC021E030E091
:1023800008C021E030E005C021E030E002C021E0DB
:1023900030E0822F932F08954130510519F40E94A7
:1023A000500108954230510519F40E94C90308955F
:1023B0004330510519F40E94D0040895443051056A
:1023C00019F40E94670508954530510519F40E94DB
:1023D000E00708954630510519F40E942309089535
:1023E00080E090E008954130510509F044C120910A
:1023F00050013091510123703327232BE9F5FC0163
:10240000EE0FFF1FEE0FFF1FEE0FFF1FE80FF91F6C
:10241000DF01A60FB71FAA0FBB1FAC5ABE4F119604
:102420001C921E92DB011197AE0FBF1FAA0FBB1F9C
:10243000AC5ABE4F11961C921E929B012F5F3F4FCC
:10244000E20FF31FEE0FFF1FEC5AFE4F11821082B6
:102450000197FC01EE0FFF1FEE0FFF1FEE0FFF1F96
:102460008E0F9F1FFC01E60FF71FEE0FFF1FEC5AA8
:10247000FE4F118210820895209150013091510138
:1024800023703078332334F4215031092C6F3F6F9F
:102490002F5F3F4F2130310509F047C0FC01EE0F9F
:1024A000FF1FEE0FFF1FEE0FFF1FAF01480F591F59
:1024B000DA01A60FB71FAA0FBB1FAC5ABE4F119669
:1024C0001C921E929C0121503109F901EE0FFF1F51
:1024D000EE0FFF1FEE0FFF1FE20FF31FE60FF71FB8
:1024E000EE0FFF1FEC5AFE4F118210829B0121500C
:1024F0003109FA01E20FF31FEE0FFF1FEC5AFE4FF6
:10250000118210820196FC01EE0FFF1FEE0FFF1FDC
:10251000EE0FFF1FE80FF91FE60FF71FEE0FFF1F6B
:10252000EC5AFE4F11821082089520915001309193
:10253000510123703078332334F4215031092C6F4A
:102540003F6F2F5F3F4F22303105E1F5FC01EE0F69
:10255000FF1FEE0FFF1FEE0FFF1FE80FF91FDF0138
:10256000A60FB71FAA0FBB1FAC5ABE4F11961C92E5
:102570001E92DB011197AE0FBF1FAA0FBB1FAC5AF3
:10258000BE4F11961C921E929B012F5F3F4FE20F90
:10259000F31FEE0FFF1FEC5AFE4F118210820196BF
:1025A000FC01EE0FFF1FEE0FFF1FEE0FFF1FE80FE6
:1025B000F91FE60FF71FEE0FFF1FEC5AFE4F1182B7
:1025C000108208952091500130915101237030788C
:1025D000332334F4215031092C6F3F6F2F5F3F4F6D
:1025E0002330310509F083C3FC01EE0FFF1FEE0F0E
:1025F000FF1FEE0FFF1FAF01480F591FDA01A60F93
:10260000B71FAA0FBB1FAC5ABE4F11961C921E9249
:102610009C0121503109F901EE0FFF1FEE0FFF1F42
:10262000EE0FFF1FE20FF31FE60FF71FEE0FFF1F66
:10263000EC5AFE4F118210829B012F5F3F4FFA012F
:10264000E20FF31FEE0FFF1FEC5AFE4F11821082B4
:102650000196FC01EE0FFF1FEE0FFF1FEE0FFF1F95
:10266000E80FF91FE60FF71FEE0FFF1FEC5AFE4FA2
:102670001182108208954230510509F078C02091EE
:1026800050013091510120FD28C0FC01EE0FFF1FC9
:10269000EE0FFF1FEE0FFF1F8E0F9F1FFC01E60FB7
:1026A000F71FEE0FFF1FEC5AFE4F11821082DB0165
:1026B0001197A80FB91FAA0FBB1FAC5ABE4F119696
:1026C0001C921E92FB013196E80FF91FEE0FFF1FBF
:1026D000EC5AFE4F118210820895209150013091E2
:1026E000510121703078332334F4215031092E6F99
:1026F0003F6F2F5F3F4F2130310509F0F8C2FC01D9
:10270000EE0FFF1FEE0FFF1FEE0FFF1FE80FF91F69
:10271000E60FF71FEE0FFF1FEC5AFE4F11821082DB
:102720009C0121503109F901EE0FFF1FEE0FFF1F31
:10273000EE0FFF1FE20FF31FE60FF71FEE0FFF1F55
:10274000EC5AFE4F118210820196FC01EE0FFF1F22
:10275000EE0FFF1FEE0FFF1FE80FF91FE60FF71F29
:10276000EE0FFF1FEC5AFE4F118210820895433086
:102770005105D9F59C01220F331F220F331F220F61
:10278000331F280F391FF901E60FF71FEE0FFF1F48
:10279000EC5AFE4F11821082AB014F5F5F4FF9017F
:1027A000E40FF51FEE0FFF1FEC5AFE4F118210824F
:1027B0000197FC01EE0FFF1FEE0FFF1FEE0FFF1F33
:1027C0008E0F9F1FFC01E60FF71FEE0FFF1FEC5A45
:1027D000FE4F11821082FC01E40FF51FEE0FFF1F68
:1027E000EC5AFE4F1182108208954430510509F0D1
:1027F00040C1209150013091510123703327232B88
:1028000009F045C0FC01EE0FFF1FEE0FFF1FEE0F9A
:10281000FF1FE80FF91FE60FF71FEE0FFF1FEC5A1F
:10282000FE4F118210829C012F5F3F4FDB011197F9
:10283000F901EE0FFF1FEE0FFF1FEE0FFF1FE20F5C
:10284000F31FAE0FBF1FAA0FBB1FAC5ABE4F11968E
:102850001C921E920197DC01AA0FBB1FAA0FBB1F7F
:10286000AA0FBB1F8A0F9B1FDC01A60FB71FAA0F61
:10287000BB1FAC5ABE4F11961C921E92E60FF71F5B
:10288000EE0FFF1FEC5AFE4F118210820895209127
:1028900050013091510123703078332334F42150AA
:1028A00031092C6F3F6F2F5F3F4F21303105E1F52C
:1028B000FC01EE0FFF1FEE0FFF1FEE0FFF1FAF011A
:1028C000480F591FFA01E60FF71FEE0FFF1FEC5AD2
:1028D000FE4F118210829B012F5F3F4FFA01E20FE2
:1028E000F31FEE0FFF1FEC5AFE4F11821082FB0107
:1028F0003197E40FF51FEE0FFF1FEC5AFE4F1182C8
:1029000010820196FC01EE0FFF1FEE0FFF1FEE0F6E
:10291000FF1FE80FF91FE20FF31FEE0FFF1FEC5A26
:10292000FE4F118210820895209150013091510183
:1029300023703078332334F4215031092C6F3F6FEA
:102940002F5F3F4F2230310509F045C0FC01EE0FEB
:10295000FF1FEE0FFF1FEE0FFF1FE80FF91FE60F1F
:10296000F71FEE0FFF1FEC5AFE4F118210829C01E1
:1029700021503109DB011196F901EE0FFF1FEE0F17
:10298000FF1FEE0FFF1FE20FF31FAE0FBF1FAA0FB7
:10299000BB1FAC5ABE4F11961C921E920196DC01D1
:1029A000AA0FBB1FAA0FBB1FAA0FBB1F8A0F9B1F1B
:1029B000DC01A60FB71FAA0FBB1FAC5ABE4F119662
:1029C0001C921E92E60FF71FEE0FFF1FEC5AFE4FF0
:1029D000118210820895209150013091510123708D
:1029E0003078332334F4215031092C6F3F6F2F5F3F
:1029F0003F4F2330310509F07AC1FC01EE0FFF1F74
:102A0000EE0FFF1FEE0FFF1FAF01480F591FFA0116
:102A1000E60FF71FEE0FFF1FEC5AFE4F11821082D8
:102A20009B0121503109FA01E20FF31FEE0FFF1F46
:102A3000EC5AFE4F11821082FB013196E40FF51F14
:102A4000EE0FFF1FEC5AFE4F118210820197FC011E
:102A5000EE0FFF1FEE0FFF1FEE0FFF1FE80FF91F16
:102A6000E20FF31FEE0FFF1FEC5AFE4F1182108290
:102A700008954530510509F09BC0209150013091D7
:102A8000510123703327232BE1F5FC01EE0FFF1FCB
:102A9000EE0FFF1FEE0FFF1FE80FF91FDF01A60F5C
:102AA000B71FAA0FBB1FAC5ABE4F11961C921E92A5
:102AB0009B0121503109E20FF31FEE0FFF1FEC5A6B
:102AC000FE4F118210820197DB011196FC01EE0F7F
:102AD000FF1FEE0FFF1FEE0FFF1FE80FF91FAE0FD6
:102AE000BF1FAA0FBB1FAC5ABE4F11961C921E925D
:102AF000E60FF71FEE0FFF1FEC5AFE4F11821082F8
:102B00000895209150013091510123703078332382
:102B100034F4215031092C6F3F6F2F5F3F4F21302C
:102B2000310509F0E4C09C01220F331F220F331F2F
:102B3000220F331F280F391FF901E60FF71FEE0F81
:102B4000FF1FEC5AFE4F11821082AB014F5F5F4FA7
:102B5000F901E40FF51FEE0FFF1FEC5AFE4F118233
:102B600010829C0121503109F901EE0FFF1FEE0F79
:102B7000FF1FEE0FFF1FE20FF31FE60FF71FEE0F11
:102B8000FF1FEC5AFE4F118210820196FC01EE0FDE
:102B9000FF1FEE0FFF1FEE0FFF1FE80FF91FE40FDF
:102BA000F51FEE0FFF1FEC5AFE4F118210820895A1
:102BB0004630510509F09BC02091500130915101E0
:102BC00023703327232BE1F5FC01EE0FFF1FEE0FDF
:102BD000FF1FEE0FFF1FE80FF91FDF01A60FB71F42
:102BE000AA0FBB1FAC5ABE4F11961C921E929B019E
:102BF0002F5F3F4FE20FF31FEE0FFF1FEC5AFE4F08
:102C0000118210820197DB011197FC01EE0FFF1F6B
:102C1000EE0FFF1FEE0FFF1FE80FF91FAE0FBF1FD4
:102C2000AA0FBB1FAC5ABE4F11961C921E92E60F04
:102C3000F71FEE0FFF1FEC5AFE4F1182108208950E
:102C4000209150013091510123703078332334F4B6
:102C5000215031092C6F3F6F2F5F3F4F21303105DD
:102C600009F045C09C01220F331F220F331F220F92
:102C7000331F280F391FF901E60FF71FEE0FFF1F53
:102C8000EC5AFE4F11821082AB014F5F5F4FF9018A
:102C9000E40FF51FEE0FFF1FEC5AFE4F118210825A
:102CA0009C0121503109F901EE0FFF1FEE0FFF1FAC
:102CB000EE0FFF1FE20FF31FE40FF51FEE0FFF1FD4
:102CC000EC5AFE4F118210820196FC01EE0FFF1F9D
:102CD000EE0FFF1FEE0FFF1F8E0F9F1FFC01E60F71
:102CE000F71FEE0FFF1FEC5AFE4F1182108208955E
:102CF000EF92FF920F931F93CF93DF93CDB7DEB781
:102D0000A0970FB6F894DEBF0FBECDBF8C01F8942C
:102D1000E12CF12C12C0C70102960E941401F701A8
:102D2000EE0FFF1F21E030E02C0F3D1FE20FF31FDD
:102D3000918380833FEFE31AF30A80E1E816F10400
:102D400054F3E12CF12C27C0AD0141505109FA0197
:102D5000EE0FFF1F21E030E02C0F3D1FE20FF31FAD
:102D6000608181E090E00AC0FA01EE0FFF1FEB5E88
:102D7000FE4F208131812BBB65BB01968B309105C5
:102D80009CF3119602C0A1E0B0E0A131B105E4F2DC
:102D90003FEFE31AF30AE016F106ACF37894A0963D
:102DA0000FB6F894DEBF0FBECDBFDF91CF911F915C
:102DB0000F91FF90EF9008958091520190915301EF
:102DC0008430910591F134F48130910551F00297EE
:102DD000D1F060C085309105D1F1069709F449C062
:102DE00059C0809150019091510101968370907863
:102DF000992324F401978C6F9F6F01969093510152
:102E00008093500147C080915001909151010196EB
:102E100081709078992324F401978E6F9F6F0196AB
:102E2000909351018093500135C080915001909151
:102E30005101019683709078992324F401978C6F47
:102E40009F6F0196909351018093500123C0809110
:102E5000500190915101019681709078992324F44A
:102E600001978E6F9F6F019690935101809350014F
:102E700011C080915001909151010196817090781C
:102E8000992324F401978E6F9F6F019690935101BF
:102E9000809350018091110190911201089749F49B
:102EA00080911101909112010197909312018093EA
:102EB00011018091110190911201019749F48091C3
:102EC00011019091120101969093120180931101CA
:102ED00008951F920F920FB60F9211242F933F93D4
:102EE0004F935F936F937F938F939F93AF93BF9312
:102EF000EF93FF930E94660A892BF1F440915201EF
:102F00005091530160911101709112018091130150
:102F1000909114010E94F3110E94DC16409152011D
:102F20005091530160911101709112018091130130
:102F3000909114010E94CC11FF91EF91BF91AF913C
:102F40009F918F917F916F915F914F913F912F91C1
:102F50000F900FBE0F901F901895809113019091C4
:102F60001401019709F445C0409152015091530159
:102F700060911101709112018091130190911401DF
:102F80000E94F31180911101909112019093100110
:102F900080930F01809111019091120101969093FD
:102FA000120180931101409152015091530160919F
:102FB00011017091120180911301909114010E94EE
:102FC000CC11892BB1F480910F0190911001909355
:102FD000120180931101409152015091530160916F
:102FE00011017091120180911301909114010E94BE
:102FF000CC1108958091130190911401019709F467
:1030000045C040915201509153016091110170915E
:10301000120180911301909114010E94F31180918B
:103020001101909112019093100180930F018091F2
:103030001101909112010197909312018093110157
:103040004091520150915301609111017091120110
:1030500080911301909114010E94CC11892BB1F43D
:1030600080910F01909110019093120180931101B2
:1030700040915201509153016091110170911201E0
:1030800080911301909114010E94CC1108951F9218
:103090000F920FB60F9211242F933F934F935F938C
:1030A0006F937F938F939F93AF93BF93EF93FF9310
:1030B0000E94FA17FF91EF91BF91AF919F918F916D
:1030C0007F916F915F914F913F912F910F900FBE24
:1030D0000F901F9018951F920F920FB60F92112408
:1030E0002F933F934F935F936F937F938F939F9310
:1030F000AF93BF93EF93FF930E94AD17FF91EF91B2
:10310000BF91AF919F918F917F916F915F914F91FF
:103110003F912F910F900FBE0F901F90189596B36F
:1031200081E0903409F080E090E008950F931F93C0
:10313000CF93DF9300E010E0C1E1D0E058C0CE01B2
:103140000E9414018F3F910509F050C0AE0141501B
:1031500051092EC0CA010196FA01EE0FFF1FEE0FB2
:10316000FF1FEE0FFF1FE40FF51FE20FF31FEE0F1F
:10317000FF1FEC5AFE4F60817181FC01EE0FFF1FB3
:10318000EE0FFF1FEE0FFF1FE80FF91FE20FF31FF7
:10319000EE0FFF1FEC5AFE4F718360832F5F3F4F8E
:1031A00002C021E030E029303105A4F2415051093C
:1031B00014161506B4F381E090E009C0FC01729684
:1031C000EE0FFF1FEC5AFE4F1182108201968930DC
:1031D0009105A4F3219680914A0190914B010196AB
:1031E00090934B0180934A0101E010E02197C23097
:1031F000D1050CF0A4CFC801DF91CF911F910F91A1
:1032000008950E947A0D892B09F44EC008950E94FA
:103210007A0D892B01F10E949618892B21F08CE3FD
:1032200090E00E94781681E090E0909314018093E2
:10323000130184E090E090931201809311010E94A9
:10324000801B66E070E00E940C1B01969093530176
:103250008093520108954091520150915301609121
:1032600011017091120180911301909114010E943B
:10327000F311809113019091140101969093140120
:1032800080931301409152015091530160911101BB
:103290007091120180911301909114010E94CC1140
:1032A0008FE090E00E9478160E948F18892B09F019
:1032B000AECF0895CF93DF93C1E0D0E00FC0FE0101
:1032C0003996EE0FFF1FEC5AFE4F80819181892BBA
:1032D00021F00E947A0D892B39F42196C930D1054D
:1032E00074F380E090E002C081E090E0DF91CF9144
:1032F00008950F931F93CF93DF93CDB7DEB76497F5
:103300000FB6F894DEBF0FBECDBF20E1E8E9F2E0D2
:10331000DF011D922A95E9F79F938F9385E391E052
:103320009F938F931F9284E18F938E010F5F1F4FA6
:103330001F930F930E94901B62E070E0C8010E94EF
:10334000C6000FB6F894DEBF0FBECDBF64960FB6B1
:10335000F894DEBF0FBECDBFDF91CF911F910F91CB
:10336000089580914E0190914F01892B09F4B0C0CE
:103370000E948F18892B11F00E9401190E945A197E
:10338000892B21F184E491E0E4E5F1E0DF019C0187
:103390001D9221503040E1F78CE390E00E947816B6
:1033A00081E090E090934D0180934C019093140143
:1033B0008093130184E090E09093120180931101B7
:1033C00080914A0190914B010E94791980911301DB
:1033D000909114010197E9F40E94801B66E070E06F
:1033E0000E940C1B019690935301809352011092FE
:1033F000510110925001409152015091530160913E
:1034000011017091120180911301909114010E9499
:10341000CC110E947A0D892B51F5409152015091A7
:1034200053016091110170911201809113019091EB
:1034300014010E94F31180911301909114010196DF
:1034400090931401809313014091520150915301C4
:1034500060911101709112018091130190911401FA
:103460000E94CC118DE290E00E94781608950E948F
:103470009618892BB9F08CE390E00E94781685EAC3
:103480009EE00197F1F700C0000081E090E090938A
:1034900014018093130184E090E0909312018093D3
:1034A00011010895A5EABEE01197F1F700C00000F0
:1034B00081E090E0909314018093130184E090E008
:1034C00090931201809311018CE390E00E94781692
:1034D000089580EE8BBF8FE085BF80E484BF789431
:1034E000089584E491E0E4E5F1E0DF019C011D92A0
:1034F00021503040E1F780E1E8E9F2E0DF011D9280
:103500008A95E9F717BA8FEF8ABB81E181BB0E94E8
:10351000691A80E090E00E944900CB010E94851B5F
:1035200086B3803849F510924F0110924E011092E7
:103530004D0110924C0181E090E090931401809332
:10354000130184E090E0909312018093110184E4D0
:1035500091E0E4E5F1E0DF019C011D922150304053
:10356000E1F780E1E8E9F2E0DF011D928A95E9F7F1
:103570008CE390E00E94781680914E0190914F016B
:10358000892B61F480914C0190914D01892B31F48C
:1035900065E070E080E491E00E94C60080914E01F9
:1035A00090914F018130910551F420914C0130915F
:1035B0004D012130310519F40E94B119B1CF0197A5
:1035C00099F480914C0190914D01892B69F4B09B45
:1035D000A7CF81E090E090934F0180934E019093AC
:1035E0004D0180934C019CCF86B3813009F098CF78
:1035F00081E090E090934F0180934E0190934D01B4
:1036000080934C01BFE728E331E0B15020403040C7
:10361000E1F700C0000084CF97FB072E16F400945A
:1036200007D077FD09D00E94201B07FC05D03EF48F
:10363000909581959F4F0895709561957F4F08955E
:10364000AA1BBB1B51E107C0AA1FBB1FA617B707C8
:1036500010F0A61BB70B881F991F5A95A9F78095E4
:103660009095BC01CD0108958F929F92AF92BF9229
:10367000CF92DF92EF92FF92CF93DF93EC016881BC
:1036800079818A819B81611571058105910521F4FC
:1036900064E279ED8BE597E02DE133EF41E050E016
:1036A0000E94511E49015A019B01AC01A7EAB1E4F5
:1036B0000E94701E6B017C01ACEEB4EFA501940179
:1036C0000E947E1EDC01CB018C0D9D1DAE1DBF1D19
:1036D000B7FF03C00197A109B04888839983AA83E3
:1036E000BB839F77DF91CF91FF90EF90DF90CF90DA
:1036F000BF90AF909F908F9008950E94341B0895C3
:1037000080E690E00E94341B0895A0E0B0E0809332
:10371000600090936100A0936200B09363000895ED
:10372000AEE0B0E0E6E9FBE10C94911E0D891E8944
:103730008F89988D26E02C831A83098397FF02C016
:1037400080E090E801979E838D83AE01455E5F4FD8
:10375000698D7A8DCE0101960E94C01B4D815E81DC
:1037600057FD0AC02F813885421753070CF49A0180
:10377000F801E20FF31F10822E96E4E00C94AD1EC8
:10378000ABE0B0E0E6ECFBE10C94831E6C017B0146
:103790008A01FC0117821682838181FFCCC1CE0190
:1037A00001963C01F6019381F70193FD859193FF0A
:1037B00081917F01882309F4BAC1853239F493FDE0
:1037C000859193FF81917F01853229F4B60190E0C4
:1037D0000E94B71DE7CF912C212C312CFFE1F3156E
:1037E000D8F08B3279F038F4803279F08332A1F45A
:1037F000232D20611DC08D3261F0803369F4232DAB
:10380000216016C0832D8260382EE32DE4603E2EA9
:103810002AC0F32DF8601DC037FC2DC020ED280F05
:103820002A3040F08E32B9F436FC81C1232D206459
:10383000322E19C036FE06C08AE0989E200D112453
:10384000922E11C0EAE02E9E200D1124222EF32D7F
:10385000F0623F2E08C08C3621F4832D8068382E0C
:1038600002C0883641F4F70193FD859193FF819161
:103870007F018111B3CF982F9F7D9554933028F409
:103880000C5F1F4F9FE399830DC0833631F0833760
:1038900071F0833509F059C021C0F8018081898316
:1038A0000E5F1F4F88248394912C530113C028016D
:1038B000F2E04F0E511CF801A080B18036FE03C02B
:1038C000692D70E002C06FEF7FEFC5010E94AC1D53
:1038D0004C018201F32DFF773F2E16C0280122E014
:1038E000420E511CF801A080B18036FE03C0692D44
:1038F00070E002C06FEF7FEFC5010E94A11D4C0177
:10390000F32DF0683F2E820133FC1BC0822D90E026
:1039100088169906B0F4B60180E290E00E94B71DC7
:103920002A94F4CFF50137FC859137FE81915F0130
:10393000B60190E00E94B71D21102A9421E0821A5E
:1039400091088114910471F7E8C0843611F089362A
:1039500041F5F80137FE07C0608171818281938152
:103960000C5F1F4F08C060817181072E000C880B0F
:10397000990B0E5F1F4FF32DFF763F2E97FF09C067
:1039800090958095709561957F4F8F4F9F4FF06810
:103990003F2E2AE030E0A3010E94F31D882E8618F6
:1039A00045C0853731F4232D2F7EB22E2AE030E03A
:1039B00025C0932D997FB92E8F36C1F018F4883524
:1039C00079F0B5C0803719F0883721F0B0C0E92F01
:1039D000E061BE2EB4FE0DC0FB2DF460BF2E09C009
:1039E00034FE0AC0292F2660B22E06C028E030E03F
:1039F00005C020E130E002C020E132E0F801B7FE6E
:103A000007C060817181828193810C5F1F4F06C066
:103A10006081718180E090E00E5F1F4FA3010E94E2
:103A2000F31D882E8618FB2DFF773F2E36FE0DC026
:103A3000232D2E7FA22E891458F434FE0BC032FCA5
:103A400009C0832D8E7EA82E05C0B82CA32C03C0E0
:103A5000B82C01C0B92CA4FE0FC0FE01E80DF11D69
:103A60008081803321F49A2D997EA92E09C0A2FE6F
:103A700006C0B394B39404C08A2D867809F0B39439
:103A8000A3FC11C0A0FE06C0B21488F4280C922C2E
:103A90009B180EC0B21460F4B60180E290E00E9460
:103AA000B71DB394F7CFB21418F42B1802C0982C9A
:103AB000212CA4FE10C0B60180E390E00E94B71D47
:103AC000A2FE17C0A1FC03C088E790E002C088E511
:103AD00090E0B6010CC08A2D867859F0A1FE02C094
:103AE0008BE201C080E2A7FC8DE2B60190E00E946B
:103AF000B71D891438F4B60180E390E00E94B71D29
:103B00009A94F7CF8A94F301E80DF11D8081B601F4
:103B100090E00E94B71D8110F5CF222009F442CE1B
:103B2000B60180E290E00E94B71D2A94F6CFF6011C
:103B30008681978102C08FEF9FEF2B96E2E10C9474
:103B40009F1EFC010590615070400110D8F78095D0
:103B500090958E0F9F1F0895FC0161507040019059
:103B60000110D8F7809590958E0F9F1F08950F93A1
:103B70001F93CF93DF93FB01238121FD03C08FEFC0
:103B80009FEF2CC022FF16C04681578124813581CA
:103B90004217530744F4A081B1819D012F5F3F4F2D
:103BA000318320838C93268137812F5F3F4F37836A
:103BB000268314C08B01EC01FB010084F185E02D0C
:103BC0000995892BE1F6D80116968D919C9117974E
:103BD000019617969C938E931697CE01DF91CF9105
:103BE0001F910F910895FA01AA27283051F1203131
:103BF00081F1E8946F936E7F6E5F7F4F8F4F9F4F81
:103C0000AF4FB1E03ED0B4E03CD0670F781F891FC2
:103C10009A1FA11D680F791F8A1F911DA11D6A0F90
:103C2000711D811D911DA11D20D009F468943F9143
:103C30002AE0269F11243019305D3193DEF6CF0142
:103C40000895462F4770405D4193B3E00FD0C9F708
:103C5000F6CF462F4F70405D4A3318F0495D31FD75
:103C60004052419302D0A9F7EACFB4E0A6959795C8
:103C7000879577956795BA95C9F70097610571059E
:103C800008959B01AC010A2E0694579547953795E8
:103C90002795BA95C9F7620F731F841F951FA01D42
:103CA0000895052E97FB1EF400940E94681E57FD90
:103CB00007D00E94BA1E07FC03D04EF40C94681E75
:103CC00050954095309521953F4F4F4F5F4F089548
:103CD00090958095709561957F4F8F4F9F4F089578
:103CE0000E94DC1EA59F900DB49F900DA49F800D97
:103CF000911D11240895B7FF0C94701E0E94701E30
:103D0000821B930B08952F923F924F925F926F9276
:103D10007F928F929F92AF92BF92CF92DF92EF925B
:103D2000FF920F931F93CF93DF93CDB7DEB7CA1BDC
:103D3000DB0B0FB6F894DEBF0FBECDBF09942A8807
:103D4000398848885F846E847D848C849B84AA84AF
:103D5000B984C884DF80EE80FD800C811B81AA813C
:103D6000B981CE0FD11D0FB6F894DEBF0FBECDBF07
:103D7000ED010895A1E21A2EAA1BBB1BFD010DC087
:103D8000AA1FBB1FEE1FFF1FA217B307E407F5070B
:103D900020F0A21BB30BE40BF50B661F771F881FE7
:103DA000991F1A9469F760957095809590959B017D
:103DB000AC01BD01CF010895A29FB001B39FC00126
:103DC000A39F700D811D1124911DB29F700D811D47
:0A3DD0001124911D0895F894FFCF0F
:103DDA0001000000544552495320434F3A303132D2
:103DEA003334353637383900E0C2FEFEC2E000828D
:103DFA00FEFE92BA82C60082FEFE9098FE6600001F
:103E0A00C682FEFE82C60044E6B2929ACE44000002
:103E1A0000000000000000387CC68282C644007C94
:103E2A00FE828282FE7C0000666600000000007C42
:103E3A00FE8A92A2FE7C00000242FEFE02020042BC
:103E4A00C68E9A92F6660044C6929292FE6C00184A
:103E5A003868CAFEFE0A00F4F69292929E8C003CE2
:103E6A007ED292921E0C00C0C08E9EB0E0C0006C42
:103E7A00FE929292FE6C0060F2929296FC78000496
:103E8A000004000100080009000A000B000C000DE4
:103E9A00000E000F0080009000A000B000C000D00B
:103EAA0000E000F00053434F52453A2564202000B9
:0A3EBA0054455452495320200000E3
:00000001FF
